{
    "abi": [
        {
            "inputs": [
                {
                    "internalType": "uint256",
                    "name": "_initialL2Block",
                    "type": "uint256"
                },
                {
                    "internalType": "address payable",
                    "name": "_commissionWallet",
                    "type": "address"
                },
                {
                    "internalType": "address[]",
                    "name": "_goshValidators",
                    "type": "address[]"
                }
            ],
            "stateMutability": "nonpayable",
            "type": "constructor"
        },
        {
            "inputs": [],
            "name": "Unauthorized",
            "type": "error"
        },
        {
            "anonymous": false,
            "inputs": [
                {
                    "indexed": true,
                    "internalType": "address",
                    "name": "token",
                    "type": "address"
                },
                {
                    "indexed": false,
                    "internalType": "address",
                    "name": "from",
                    "type": "address"
                },
                {
                    "indexed": false,
                    "internalType": "uint256",
                    "name": "pubkey",
                    "type": "uint256"
                },
                {
                    "indexed": false,
                    "internalType": "uint256",
                    "name": "value",
                    "type": "uint256"
                }
            ],
            "name": "Deposited",
            "type": "event"
        },
        {
            "anonymous": false,
            "inputs": [
                {
                    "indexed": true,
                    "internalType": "uint256",
                    "name": "proposalKey",
                    "type": "uint256"
                }
            ],
            "name": "WithdrawExecuted",
            "type": "event"
        },
        {
            "anonymous": false,
            "inputs": [
                {
                    "indexed": true,
                    "internalType": "uint256",
                    "name": "proposalKey",
                    "type": "uint256"
                },
                {
                    "indexed": true,
                    "internalType": "address",
                    "name": "voter",
                    "type": "address"
                },
                {
                    "indexed": false,
                    "internalType": "uint8",
                    "name": "reason",
                    "type": "uint8"
                }
            ],
            "name": "WithdrawRejected",
            "type": "event"
        },
        {
            "anonymous": false,
            "inputs": [
                {
                    "indexed": true,
                    "internalType": "address",
                    "name": "token",
                    "type": "address"
                },
                {
                    "indexed": true,
                    "internalType": "address",
                    "name": "to",
                    "type": "address"
                },
                {
                    "indexed": false,
                    "internalType": "uint256",
                    "name": "value",
                    "type": "uint256"
                },
                {
                    "indexed": false,
                    "internalType": "uint256",
                    "name": "commission",
                    "type": "uint256"
                }
            ],
            "name": "Withdrawal",
            "type": "event"
        },
        {
            "inputs": [
                {
                    "internalType": "uint256",
                    "name": "pubkey",
                    "type": "uint256"
                }
            ],
            "name": "deposit",
            "outputs": [],
            "stateMutability": "payable",
            "type": "function"
        },
        {
            "inputs": [
                {
                    "internalType": "address",
                    "name": "token",
                    "type": "address"
                },
                {
                    "internalType": "uint256",
                    "name": "value",
                    "type": "uint256"
                },
                {
                    "internalType": "uint256",
                    "name": "pubkey",
                    "type": "uint256"
                }
            ],
            "name": "depositERC20",
            "outputs": [],
            "stateMutability": "payable",
            "type": "function"
        },
        {
            "inputs": [],
            "name": "freezeDeposits",
            "outputs": [],
            "stateMutability": "payable",
            "type": "function"
        },
        {
            "inputs": [],
            "name": "gasPrice",
            "outputs": [
                {
                    "internalType": "uint256",
                    "name": "",
                    "type": "uint256"
                }
            ],
            "stateMutability": "view",
            "type": "function"
        },
        {
            "inputs": [
                {
                    "internalType": "address",
                    "name": "token",
                    "type": "address"
                },
                {
                    "internalType": "address",
                    "name": "recipient",
                    "type": "address"
                }
            ],
            "name": "getERC20Approvement",
            "outputs": [
                {
                    "internalType": "uint256",
                    "name": "value",
                    "type": "uint256"
                },
                {
                    "internalType": "uint256",
                    "name": "commission",
                    "type": "uint256"
                }
            ],
            "stateMutability": "view",
            "type": "function"
        },
        {
            "inputs": [
                {
                    "internalType": "uint256",
                    "name": "proposalKey",
                    "type": "uint256"
                },
                {
                    "internalType": "address",
                    "name": "myAddress",
                    "type": "address"
                }
            ],
            "name": "getMyVoteForWithdrawal",
            "outputs": [
                {
                    "internalType": "bool",
                    "name": "isVoted",
                    "type": "bool"
                }
            ],
            "stateMutability": "view",
            "type": "function"
        },
        {
            "inputs": [
                {
                    "internalType": "uint256",
                    "name": "proposalKey",
                    "type": "uint256"
                }
            ],
            "name": "getProposal",
            "outputs": [
                {
                    "internalType": "uint256",
                    "name": "fromBlock",
                    "type": "uint256"
                },
                {
                    "internalType": "uint256",
                    "name": "tillB",
                    "type": "uint256"
                },
                {
                    "components": [
                        {
                            "internalType": "address",
                            "name": "token",
                            "type": "address"
                        },
                        {
                            "internalType": "address payable",
                            "name": "to",
                            "type": "address"
                        },
                        {
                            "internalType": "uint256",
                            "name": "value",
                            "type": "uint256"
                        },
                        {
                            "internalType": "uint256",
                            "name": "trxHash",
                            "type": "uint256"
                        }
                    ],
                    "internalType": "struct Elock.Transfer[]",
                    "name": "transfers",
                    "type": "tuple[]"
                }
            ],
            "stateMutability": "view",
            "type": "function"
        },
        {
            "inputs": [],
            "name": "getProposalList",
            "outputs": [
                {
                    "internalType": "uint256[]",
                    "name": "proposalKeys",
                    "type": "uint256[]"
                }
            ],
            "stateMutability": "view",
            "type": "function"
        },
        {
            "inputs": [],
            "name": "getProposedValidators",
            "outputs": [
                {
                    "internalType": "address[]",
                    "name": "proposedValidatorSet",
                    "type": "address[]"
                }
            ],
            "stateMutability": "view",
            "type": "function"
        },
        {
            "inputs": [],
            "name": "getTokenRoots",
            "outputs": [
                {
                    "internalType": "address[]",
                    "name": "roots",
                    "type": "address[]"
                }
            ],
            "stateMutability": "view",
            "type": "function"
        },
        {
            "inputs": [
                {
                    "internalType": "address",
                    "name": "token_root",
                    "type": "address"
                }
            ],
            "name": "getTotalSupply",
            "outputs": [
                {
                    "internalType": "uint256",
                    "name": "amount",
                    "type": "uint256"
                }
            ],
            "stateMutability": "view",
            "type": "function"
        },
        {
            "inputs": [],
            "name": "getValidators",
            "outputs": [
                {
                    "internalType": "address[]",
                    "name": "currentValidatorSet",
                    "type": "address[]"
                }
            ],
            "stateMutability": "view",
            "type": "function"
        },
        {
            "inputs": [
                {
                    "internalType": "uint256",
                    "name": "proposalKey",
                    "type": "uint256"
                }
            ],
            "name": "getVotesForWithdrawal",
            "outputs": [
                {
                    "internalType": "uint256",
                    "name": "votes",
                    "type": "uint256"
                }
            ],
            "stateMutability": "view",
            "type": "function"
        },
        {
            "inputs": [],
            "name": "lastProcessedL2Block",
            "outputs": [
                {
                    "internalType": "uint256",
                    "name": "",
                    "type": "uint256"
                }
            ],
            "stateMutability": "view",
            "type": "function"
        },
        {
            "inputs": [],
            "name": "proposalWithdrawalFee",
            "outputs": [
                {
                    "internalType": "uint256",
                    "name": "",
                    "type": "uint256"
                }
            ],
            "stateMutability": "view",
            "type": "function"
        },
        {
            "inputs": [
                {
                    "internalType": "address[]",
                    "name": "validatorSet",
                    "type": "address[]"
                }
            ],
            "name": "proposeChangeValidators",
            "outputs": [],
            "stateMutability": "payable",
            "type": "function"
        },
        {
            "inputs": [
                {
                    "internalType": "uint256",
                    "name": "fromBlock",
                    "type": "uint256"
                },
                {
                    "internalType": "uint256",
                    "name": "tillBlock",
                    "type": "uint256"
                },
                {
                    "components": [
                        {
                            "internalType": "address",
                            "name": "token",
                            "type": "address"
                        },
                        {
                            "internalType": "address payable",
                            "name": "to",
                            "type": "address"
                        },
                        {
                            "internalType": "uint256",
                            "name": "value",
                            "type": "uint256"
                        },
                        {
                            "internalType": "uint256",
                            "name": "trxHash",
                            "type": "uint256"
                        }
                    ],
                    "internalType": "struct Elock.Transfer[]",
                    "name": "transfers",
                    "type": "tuple[]"
                }
            ],
            "name": "proposeWithdrawal",
            "outputs": [],
            "stateMutability": "payable",
            "type": "function"
        },
        {
            "inputs": [
                {
                    "internalType": "uint256",
                    "name": "fee",
                    "type": "uint256"
                }
            ],
            "name": "setProposalWithdrawalFee",
            "outputs": [],
            "stateMutability": "nonpayable",
            "type": "function"
        },
        {
            "inputs": [],
            "name": "totalSupply",
            "outputs": [
                {
                    "internalType": "uint256",
                    "name": "",
                    "type": "uint256"
                }
            ],
            "stateMutability": "view",
            "type": "function"
        },
        {
            "inputs": [],
            "name": "trxDepositCount",
            "outputs": [
                {
                    "internalType": "uint128",
                    "name": "",
                    "type": "uint128"
                }
            ],
            "stateMutability": "view",
            "type": "function"
        },
        {
            "inputs": [],
            "name": "trxWithdrawCount",
            "outputs": [
                {
                    "internalType": "uint128",
                    "name": "",
                    "type": "uint128"
                }
            ],
            "stateMutability": "view",
            "type": "function"
        },
        {
            "inputs": [],
            "name": "unfreezeDeposits",
            "outputs": [],
            "stateMutability": "payable",
            "type": "function"
        },
        {
            "inputs": [
                {
                    "internalType": "bool",
                    "name": "vote",
                    "type": "bool"
                }
            ],
            "name": "voteForChangeValidators",
            "outputs": [],
            "stateMutability": "payable",
            "type": "function"
        },
        {
            "inputs": [
                {
                    "internalType": "uint256",
                    "name": "proposalKey",
                    "type": "uint256"
                }
            ],
            "name": "voteForWithdrawal",
            "outputs": [],
            "stateMutability": "payable",
            "type": "function"
        },
        {
            "inputs": [],
            "name": "votedForFreezeList",
            "outputs": [
                {
                    "internalType": "address[]",
                    "name": "",
                    "type": "address[]"
                }
            ],
            "stateMutability": "view",
            "type": "function"
        },
        {
            "inputs": [
                {
                    "internalType": "address",
                    "name": "token",
                    "type": "address"
                }
            ],
            "name": "withdrawERC20",
            "outputs": [],
            "stateMutability": "payable",
            "type": "function"
        },
        {
            "stateMutability": "payable",
            "type": "receive"
        }
    ],
    "bytecode": {
        "object": "0x60e060405262061a806018553480156200001857600080fd5b50604051620027f5380380620027f58339810160408190526200003b91620001fc565b600083116200004957600080fd5b60008151116200005857600080fd5b4340600255608083905260038390556001600160a01b03821660a0523360c05260005b8151811015620000e757600160046000848481518110620000a057620000a0620002ef565b6020908102919091018101516001600160a01b03168252810191909152604001600020805460ff191691151591909117905580620000de816200031b565b9150506200007b565b508051620000fd9060149060208401906200013a565b5080516200010b9062000118565b6009555062000370915050565b60006200012760028362000337565b620001349060016200035a565b92915050565b82805482825590600052602060002090810192821562000192579160200282015b828111156200019257825182546001600160a01b0319166001600160a01b039091161782556020909201916001909101906200015b565b50620001a0929150620001a4565b5090565b5b80821115620001a05760008155600101620001a5565b6001600160a01b0381168114620001d157600080fd5b50565b634e487b7160e01b600052604160045260246000fd5b8051620001f781620001bb565b919050565b6000806000606084860312156200021257600080fd5b835192506020808501516200022781620001bb565b60408601519093506001600160401b03808211156200024557600080fd5b818701915087601f8301126200025a57600080fd5b8151818111156200026f576200026f620001d4565b8060051b604051601f19603f83011681018181108582111715620002975762000297620001d4565b60405291825284820192508381018501918a831115620002b657600080fd5b938501935b82851015620002df57620002cf85620001ea565b84529385019392850192620002bb565b8096505050505050509250925092565b634e487b7160e01b600052603260045260246000fd5b634e487b7160e01b600052601160045260246000fd5b60006001820162000330576200033062000305565b5060010190565b6000826200035557634e487b7160e01b600052601260045260246000fd5b500490565b8082018082111562000134576200013462000305565b60805160a05160c0516124586200039d600039600061134b01526000611a820152600050506124586000f3fe6080604052600436106101855760003560e01c8063a2e22f0e116100d1578063c7f758a81161008a578063f292f52b11610064578063f292f52b1461045c578063f2a212501461047c578063f4f3b20014610491578063fe173b97146104a457600080fd5b8063c7f758a814610412578063d00f128b14610441578063ef8ae1f91461045457600080fd5b8063a2e22f0e14610398578063b6b55f25146103ba578063b7ab4db5146103cd578063bb1b2ba2146103e2578063bcb999ca146103f5578063c44339ce146103fd57600080fd5b80634fb01f211161013e57806368da10ae1161011857806368da10ae146102f557806369d914bc1461032b578063775087f214610341578063939947b81461037157600080fd5b80634fb01f211461029f578063641840e1146102cc57806365581f50146102df57600080fd5b806318160ddd1461019157806321425ee0146101ba57806324c37d6e146101cf5780632d50453714610207578063346750f31461026a578063438f3b241461028c57600080fd5b3661018c57005b600080fd5b34801561019d57600080fd5b506101a760005481565b6040519081526020015b60405180910390f35b6101cd6101c8366004611ecc565b6104b7565b005b3480156101db57600080fd5b506001546101ef906001600160801b031681565b6040516001600160801b0390911681526020016101b1565b34801561021357600080fd5b50610255610222366004611f01565b6001600160a01b039182166000908152601560209081526040808320939094168252919091522080546001909101549091565b604080519283526020830191909152016101b1565b34801561027657600080fd5b5061027f610786565b6040516101b19190611f3a565b6101cd61029a366004611f7e565b6107de565b3480156102ab57600080fd5b506101a76102ba366004612001565b6000908152600e602052604090205490565b6101cd6102da366004612028565b610974565b3480156102eb57600080fd5b506101a760035481565b34801561030157600080fd5b506101a761031036600461204c565b6001600160a01b031660009081526016602052604090205490565b34801561033757600080fd5b506101a760185481565b34801561034d57600080fd5b5061036161035c366004612069565b610a7e565b60405190151581526020016101b1565b34801561037d57600080fd5b506001546101ef90600160801b90046001600160801b031681565b3480156103a457600080fd5b506103ad610aab565b6040516101b1919061208e565b6101cd6103c8366004612001565b610b0c565b3480156103d957600080fd5b506103ad610c4b565b6101cd6103f0366004612001565b610cab565b6101cd610e4e565b34801561040957600080fd5b506103ad611016565b34801561041e57600080fd5b5061043261042d366004612001565b611076565b6040516101b1939291906120cf565b6101cd61044f366004612164565b611147565b6101cd6111ca565b34801561046857600080fd5b506101cd610477366004612001565b611340565b34801561048857600080fd5b506103ad611395565b6101cd61049f36600461204c565b6113f5565b3480156104b057600080fd5b503a6101a7565b60125460ff16156104c757600080fd5b6001600160a01b0383166104da57600080fd5b604051636eb1769f60e11b81523360048201523060248201526000906001600160a01b0385169063dd62ed3e90604401602060405180830381865afa158015610527573d6000803e3d6000fd5b505050506040513d601f19601f8201168201806040525081019061054b9190612229565b9050828110156105915760405162461bcd60e51b815260206004820152600c60248201526b139bdd08185c1c1c9bdd995960a21b60448201526064015b60405180910390fd5b6040516323b872dd60e01b8152336004820152306024820152604481018490526000906001600160a01b038616906323b872dd906064016020604051808303816000875af11580156105e7573d6000803e3d6000fd5b505050506040513d601f19601f8201168201806040525081019061060b9190612242565b90508061064c5760405162461bcd60e51b815260206004820152600f60248201526e151c985b9cd9995c8819985a5b1959608a1b6044820152606401610588565b6001805481906000906106699083906001600160801b0316612275565b92506101000a8154816001600160801b0302191690836001600160801b0316021790555060166000866001600160a01b03166001600160a01b031681526020019081526020016000205460000361070657601780546001810182556000919091527fc624b66cc0138b8fabc209247f72d758e1cf3343756d543badbf24212bed8c150180546001600160a01b0319166001600160a01b0387161790555b6001600160a01b0385166000908152601660205260408120805486929061072e90849061229c565b909155505060408051338152602081018590529081018590526001600160a01b038616907ff5681f9d0db1b911ac18ee83d515a1cf1051853a9eae418316a2fdf7dea427c59060600160405180910390a25050505050565b606060088054806020026020016040519081016040528092919081815260200182805480156107d457602002820191906000526020600020905b8154815260200190600101908083116107c0575b5050505050905090565b3360009081526004602052604090205460ff1661080d576040516282b42960e81b815260040160405180910390fd5b600354841461081b57600080fd5b604080516020808201879052818301869052825180830384018152606090920183528151828201206000818152600790925292902054909190156108a15760405162461bcd60e51b815260206004820152601760248201527f50726f706f73616c20616c7265616479206578697374730000000000000000006044820152606401610588565b600081815260076020526040812087815560018101879055905b8481101561091c57816002018686838181106108d9576108d96122af565b83546001810185556000948552602090942060809091029290920192600402909101905061090782826122e5565b505080806109149061232f565b9150506108bb565b50600880546001810182556000919091527ff3f7a9fe364faab93b216da50a3214154f22a0a2b415b23a84c8169e8b636ee301829055601854600f6000828254610966919061229c565b909155505050505050505050565b3360009081526004602052604090205460ff166109a3576040516282b42960e81b815260040160405180910390fd5b336000908152600a602052604090205460ff16156109f35760405162461bcd60e51b815260206004820152600d60248201526c105b1c9958591e481d9bdd1959609a1b6044820152606401610588565b336000908152600a60205260409020805460ff191660011790558015610a41576001600b6000828254610a26919061229c565b9091555050600954600b5410610a3e57610a3e6115d1565b50565b6001600c6000828254610a54919061229c565b9091555050600954601454610a699190612348565b600c541115610a3e57610a3e60056000611d74565b6000828152600d602090815260408083206001600160a01b038516845290915290205460ff165b92915050565b606060118054806020026020016040519081016040528092919081815260200182805480156107d457602002820191906000526020600020905b81546001600160a01b03168152600190910190602001808311610ae5575050505050905090565b60125460ff1615610b1c57600080fd5b662386f26fc100003411610b2f57600080fd5b60008054340181558080526016602052600080516020612403833981519152549003610b9657601780546001810182556000919091527fc624b66cc0138b8fabc209247f72d758e1cf3343756d543badbf24212bed8c150180546001600160a01b03191690555b600080805260166020526000805160206124038339815191528054349290610bbf90849061229c565b9091555050600180548190600090610be19083906001600160801b0316612275565b82546101009290920a6001600160801b03818102199093169190921691909102179055506040805133815260208101839052348183015290516000917ff5681f9d0db1b911ac18ee83d515a1cf1051853a9eae418316a2fdf7dea427c5919081900360600190a250565b606060148054806020026020016040519081016040528092919081815260200182805480156107d4576020028201919060005260206000209081546001600160a01b03168152600190910190602001808311610ae5575050505050905090565b3360009081526004602052604090205460ff16610cda576040516282b42960e81b815260040160405180910390fd5b6000818152600760205260408120549003610d2e5760405162461bcd60e51b8152602060048201526014602482015273556e6b6e6f776e2070726f706f73616c206b657960601b6044820152606401610588565b6000818152600d6020908152604080832033845290915281205460ff1615159003610d9b576000818152600d602090815260408083203384528252808320805460ff19166001908117909155848452600e9092528220805491929091610d9590849061229c565b90915550505b6009546000828152600e602052604090205410610a3e576000610dbd826116cd565b90508015610e1157600082815260076020526040902060010154600355610de2611afc565b60405182907f906f71466379a94b86a805004f5cc535b083a42e1a1582e29048cc78633d795590600090a25050565b60405160038152339083907fc93e352b0db2382529aa994f33e15a46c2761d27903172db06fcabd426ebc4889060200160405180910390a35b5050565b3360009081526004602052604090205460ff16610e7d576040516282b42960e81b815260040160405180910390fd5b60125460ff1615610ed05760405162461bcd60e51b815260206004820152601760248201527f4465706f73697420616c726561647920667265657a65640000000000000000006044820152606401610588565b600b5415610ef05760405162461bcd60e51b81526004016105889061235b565b60013360009081526010602052604090205460ff166002811115610f1657610f1661239d565b03610f2057600080fd5b600954601154610f3190600161229c565b10610fb1576012805460ff1916600117905560005b601154811015610fa257600060118281548110610f6557610f656122af565b6000918252602080832091909101546001600160a01b031682526010905260409020805460ff191690555080610f9a8161232f565b915050610f46565b50610faf60116000611d74565b565b33600090815260106020526040902080546001919060ff191682805b0217905550601180546001810182556000919091527f31ecc21a745e3968a04e9570e4425bc18fa8019c68028196b546d1669c200c680180546001600160a01b03191633179055565b606060058054806020026020016040519081016040528092919081815260200182805480156107d4576020028201919060005260206000209081546001600160a01b03168152600190910190602001808311610ae5575050505050905090565b60008181526007602090815260408083208151606081810184528254825260018301548286015260028301805485518188028101880187528181528897939688969490860193919290879084015b82821015611126576000848152602090819020604080516080810182526004860290920180546001600160a01b0390811684526001808301549091168486015260028201549284019290925260030154606083015290835290920191016110c4565b50505091525050805160208201516040909201519097919650945092505050565b3360009081526004602052604090205460ff16611176576040516282b42960e81b815260040160405180910390fd5b6005541561118357600080fd5b600081511161119157600080fd5b80516111a4906005906020840190611d92565b506001600660008282546111b8919061229c565b90915550506000600b819055600c5550565b3360009081526004602052604090205460ff166111f9576040516282b42960e81b815260040160405180910390fd5b60125460ff1615156001146112505760405162461bcd60e51b815260206004820152601960248201527f4465706f73697420616c726561647920756e667265657a6564000000000000006044820152606401610588565b600b54156112705760405162461bcd60e51b81526004016105889061235b565b60023360009081526010602052604090205460ff1660028111156112965761129661239d565b036112a057600080fd5b6009546011546112b190600161229c565b1061131f576012805460ff1916905560005b601154811015610fa2576000601182815481106112e2576112e26122af565b6000918252602080832091909101546001600160a01b031682526010905260409020805460ff1916905550806113178161232f565b9150506112c3565b33600090815260106020526040902080546002919060ff1916600183610fcd565b336001600160a01b037f0000000000000000000000000000000000000000000000000000000000000000161461137557600080fd5b6000811161138257600080fd5b601854810361139057600080fd5b601855565b606060178054806020026020016040519081016040528092919081815260200182805480156107d4576020028201919060005260206000209081546001600160a01b03168152600190910190602001808311610ae5575050505050905090565b6001600160a01b03811660009081526015602090815260408083203384529091529020805461142357600080fd5b8060010154341461143357600080fd5b80546001808301546001600160a01b0385166000818152601560209081526040808320338085529252808320838155909501829055935163a9059cbb60e01b8152600481019490945260248401859052919263a9059cbb906044016020604051808303816000875af11580156114ad573d6000803e3d6000fd5b505050506040513d601f19601f820116820180604052508101906114d19190612242565b905080156115ca576001805481906010906114fd908390600160801b90046001600160801b0316612275565b92506101000a8154816001600160801b0302191690836001600160801b031602179055508260166000876001600160a01b03166001600160a01b0316815260200190815260200160002060008282546115569190612348565b90915550506001600160a01b03851660009081526016602052604081205490036115835761158385611bf3565b604080518481526020810184905233916001600160a01b038816917fc2b4a290c20fb28939d29f102514fbffd2b73c059ffba8b78250c94161d5fcc6910160405180910390a35b5050505050565b60005b6014548110156116335760046000601483815481106115f5576115f56122af565b60009182526020808320909101546001600160a01b031683528201929092526040019020805460ff191690558061162b8161232f565b9150506115d4565b5060005b6005548110156116a0576001600460006005848154811061165a5761165a6122af565b6000918252602080832091909101546001600160a01b031683528201929092526040019020805460ff1916911515919091179055806116988161232f565b915050611637565b50600580546116b191601491611df7565b506005546116be90611cfa565b600955610faf60056000611d74565b600081815260076020908152604080832060020180548251818502810185019093528083528493849084015b8282101561175b576000848152602090819020604080516080810182526004860290920180546001600160a01b0390811684526001808301549091168486015260028201549284019290925260030154606083015290835290920191016116f9565b50505050905060008082513a600f5461177491906123b3565b61177e91906123ca565b905060008161178f3a6152086123b3565b611799919061229c565b90506000806000805b87518110156118205760006001600160a01b03168882815181106117c8576117c86122af565b6020026020010151600001516001600160a01b03160361180e578781815181106117f4576117f46122af565b6020026020010151604001518761180b919061229c565b96505b806118188161232f565b9150506117a2565b5047861180611830575060005486115b156118445750600098975050505050505050565b60005b8751811015611998576000888281518110611864576118646122af565b602090810291909101015180519091506001600160a01b031661196d57858160400151111561194957600086826040015161189f9190612348565b60208301516040519192506001600160a01b03169082156108fc029083906000818181858888f193505050501580156118dc573d6000803e3d6000fd5b5081602001516001600160a01b031682600001516001600160a01b03167fc2b4a290c20fb28939d29f102514fbffd2b73c059ffba8b78250c94161d5fcc6838a604051611933929190918252602082015260400190565b60405180910390a3611945888761229c565b9550505b611954600185612275565b9350806040015183611966919061229c565b9250611985565b6119858160000151826020015183604001518a611d12565b50806119908161232f565b915050611847565b5081600160108282829054906101000a90046001600160801b03166119bd9190612275565b92506101000a8154816001600160801b0302191690836001600160801b03160217905550806000808282546119f29190612348565b9091555050600080805260166020526000805160206124038339815191528054839290611a20908490612348565b909155505060008080526016602052600080516020612403833981519152549003611a4f57611a4f6000611bf3565b8260136000828254611a61919061229c565b90915550506013546703782dace9d900001015611aed576001600160a01b037f0000000000000000000000000000000000000000000000000000000000000000166108fc611ab13a6152086123b3565b601354611abe9190612348565b6040518115909202916000818181858888f19350505050158015611ae6573d6000803e3d6000fd5b5060006013555b50600198975050505050505050565b60005b600854811015611bdf57600060088281548110611b1e57611b1e6122af565b60009182526020808320909101548083526007909152604082208281556001810183905590925090611b536002830182611e37565b505060005b601454811015611bbd57600060148281548110611b7757611b776122af565b6000918252602080832090910154858352600d825260408084206001600160a01b03909216845291529020805460ff191690555080611bb58161232f565b915050611b58565b506000908152600e602052604081205580611bd78161232f565b915050611aff565b50611bec60086000611d74565b6000600f55565b60005b601754811015610e4a57816001600160a01b031660178281548110611c1d57611c1d6122af565b6000918252602090912001546001600160a01b031603611ce85760178054611c4790600190612348565b81548110611c5757611c576122af565b600091825260209091200154601780546001600160a01b039092169183908110611c8357611c836122af565b9060005260206000200160006101000a8154816001600160a01b0302191690836001600160a01b031602179055506017805480611cc257611cc26123ec565b600082815260209020810160001990810180546001600160a01b03191690550190555050565b80611cf28161232f565b915050611bf6565b6000611d076002836123ca565b610aa590600161229c565b6001600160a01b0380851660009081526015602090815260408083209387168352929052908120805490918491839190611d4d90849061229c565b9250508190555081816001016000828254611d68919061229c565b90915550505050505050565b5080546000825590600052602060002090810190610a3e9190611e58565b828054828255906000526020600020908101928215611de7579160200282015b82811115611de757825182546001600160a01b0319166001600160a01b03909116178255602090920191600190910190611db2565b50611df3929150611e58565b5090565b828054828255906000526020600020908101928215611de75760005260206000209182015b82811115611de7578254825591600101919060010190611e1c565b5080546000825560040290600052602060002090810190610a3e9190611e6d565b5b80821115611df35760008155600101611e59565b5b80821115611df35780546001600160a01b0319908116825560018201805490911690556000600282018190556003820155600401611e6e565b6001600160a01b0381168114610a3e57600080fd5b8035611ec781611ea7565b919050565b600080600060608486031215611ee157600080fd5b8335611eec81611ea7565b95602085013595506040909401359392505050565b60008060408385031215611f1457600080fd5b8235611f1f81611ea7565b91506020830135611f2f81611ea7565b809150509250929050565b6020808252825182820181905260009190848201906040850190845b81811015611f7257835183529284019291840191600101611f56565b50909695505050505050565b60008060008060608587031215611f9457600080fd5b8435935060208501359250604085013567ffffffffffffffff80821115611fba57600080fd5b818701915087601f830112611fce57600080fd5b813581811115611fdd57600080fd5b8860208260071b8501011115611ff257600080fd5b95989497505060200194505050565b60006020828403121561201357600080fd5b5035919050565b8015158114610a3e57600080fd5b60006020828403121561203a57600080fd5b81356120458161201a565b9392505050565b60006020828403121561205e57600080fd5b813561204581611ea7565b6000806040838503121561207c57600080fd5b823591506020830135611f2f81611ea7565b6020808252825182820181905260009190848201906040850190845b81811015611f725783516001600160a01b0316835292840192918401916001016120aa565b60006060808301868452602086818601526040838187015282875180855260809450848801915083890160005b8281101561213d57815180516001600160a01b03908116865287820151168786015285810151868601528801518885015292860192908501906001016120fc565b50919b9a5050505050505050505050565b634e487b7160e01b600052604160045260246000fd5b6000602080838503121561217757600080fd5b823567ffffffffffffffff8082111561218f57600080fd5b818501915085601f8301126121a357600080fd5b8135818111156121b5576121b561214e565b8060051b604051601f19603f830116810181811085821117156121da576121da61214e565b6040529182528482019250838101850191888311156121f857600080fd5b938501935b8285101561221d5761220e85611ebc565b845293850193928501926121fd565b98975050505050505050565b60006020828403121561223b57600080fd5b5051919050565b60006020828403121561225457600080fd5b81516120458161201a565b634e487b7160e01b600052601160045260246000fd5b6001600160801b038181168382160190808211156122955761229561225f565b5092915050565b80820180821115610aa557610aa561225f565b634e487b7160e01b600052603260045260246000fd5b80546001600160a01b0319166001600160a01b0392909216919091179055565b81356122f081611ea7565b6122fa81836122c5565b50602082013561230981611ea7565b61231681600184016122c5565b5060408201356002820155606082013560038201555050565b6000600182016123415761234161225f565b5060010190565b81810381811115610aa557610aa561225f565b60208082526022908201527f56616c696461746f7273206368616e67696e6720697320696e2070726f677265604082015261737360f01b606082015260800190565b634e487b7160e01b600052602160045260246000fd5b8082028115828204841417610aa557610aa561225f565b6000826123e757634e487b7160e01b600052601260045260246000fd5b500490565b634e487b7160e01b600052603160045260246000fdfe0263c2b778d062355049effc2dece97bc6547ff8a88a3258daa512061c2153dda26469706673582212200615afbc1a84d6b9523dc38f32a4fe1d24f2a45f9e8e1a4bd60d5de339e0757764736f6c63430008150033",
        "linkReferences": {}
    },
    "methodIdentifiers": {
        "deposit(uint256)": "b6b55f25",
        "depositERC20(address,uint256,uint256)": "21425ee0",
        "freezeDeposits()": "bcb999ca",
        "gasPrice()": "fe173b97",
        "getERC20Approvement(address,address)": "2d504537",
        "getMyVoteForWithdrawal(uint256,address)": "775087f2",
        "getProposal(uint256)": "c7f758a8",
        "getProposalList()": "346750f3",
        "getProposedValidators()": "c44339ce",
        "getTokenRoots()": "f2a21250",
        "getTotalSupply(address)": "68da10ae",
        "getValidators()": "b7ab4db5",
        "getVotesForWithdrawal(uint256)": "4fb01f21",
        "lastProcessedL2Block()": "65581f50",
        "proposalWithdrawalFee()": "69d914bc",
        "proposeChangeValidators(address[])": "d00f128b",
        "proposeWithdrawal(uint256,uint256,(address,address,uint256,uint256)[])": "438f3b24",
        "setProposalWithdrawalFee(uint256)": "f292f52b",
        "totalSupply()": "18160ddd",
        "trxDepositCount()": "24c37d6e",
        "trxWithdrawCount()": "939947b8",
        "unfreezeDeposits()": "ef8ae1f9",
        "voteForChangeValidators(bool)": "641840e1",
        "voteForWithdrawal(uint256)": "bb1b2ba2",
        "votedForFreezeList()": "a2e22f0e",
        "withdrawERC20(address)": "f4f3b200"
    },
    "id": 18
}