{
    "abi": [
        {
            "inputs": [
                {
                    "internalType": "uint256",
                    "name": "startBlock",
                    "type": "uint256"
                },
                {
                    "internalType": "address[]",
                    "name": "validatorSet",
                    "type": "address[]"
                }
            ],
            "stateMutability": "nonpayable",
            "type": "constructor"
        },
        {
            "inputs": [],
            "name": "Unauthorized",
            "type": "error"
        },
        {
            "anonymous": false,
            "inputs": [
                {
                    "indexed": true,
                    "internalType": "uint256",
                    "name": "proposalKey",
                    "type": "uint256"
                },
                {
                    "indexed": true,
                    "internalType": "address",
                    "name": "voter",
                    "type": "address"
                },
                {
                    "indexed": false,
                    "internalType": "uint8",
                    "name": "reason",
                    "type": "uint8"
                }
            ],
            "name": "VoteRejected",
            "type": "event"
        },
        {
            "inputs": [
                {
                    "internalType": "uint256",
                    "name": "pubkey",
                    "type": "uint256"
                }
            ],
            "name": "deposit",
            "outputs": [],
            "stateMutability": "payable",
            "type": "function"
        },
        {
            "inputs": [],
            "name": "freeze",
            "outputs": [],
            "stateMutability": "payable",
            "type": "function"
        },
        {
            "inputs": [
                {
                    "internalType": "uint256",
                    "name": "proposalKey",
                    "type": "uint256"
                }
            ],
            "name": "getMyVoteForWithdrawal",
            "outputs": [
                {
                    "internalType": "bool",
                    "name": "isVoted",
                    "type": "bool"
                }
            ],
            "stateMutability": "view",
            "type": "function"
        },
        {
            "inputs": [
                {
                    "internalType": "uint256",
                    "name": "proposalKey",
                    "type": "uint256"
                }
            ],
            "name": "getProposal",
            "outputs": [
                {
                    "internalType": "uint256",
                    "name": "fromBlock",
                    "type": "uint256"
                },
                {
                    "internalType": "uint256",
                    "name": "tillB",
                    "type": "uint256"
                },
                {
                    "components": [
                        {
                            "internalType": "address payable",
                            "name": "to",
                            "type": "address"
                        },
                        {
                            "internalType": "uint256",
                            "name": "value",
                            "type": "uint256"
                        },
                        {
                            "internalType": "uint256",
                            "name": "trxHash",
                            "type": "uint256"
                        }
                    ],
                    "internalType": "struct Elock.Transfer[]",
                    "name": "transfers",
                    "type": "tuple[]"
                }
            ],
            "stateMutability": "view",
            "type": "function"
        },
        {
            "inputs": [],
            "name": "getProposalList",
            "outputs": [
                {
                    "internalType": "uint256[]",
                    "name": "proposalKeys",
                    "type": "uint256[]"
                }
            ],
            "stateMutability": "view",
            "type": "function"
        },
        {
            "inputs": [],
            "name": "getProposedValidators",
            "outputs": [
                {
                    "internalType": "address[]",
                    "name": "proposedValidatorSet",
                    "type": "address[]"
                }
            ],
            "stateMutability": "view",
            "type": "function"
        },
        {
            "inputs": [],
            "name": "getValidators",
            "outputs": [
                {
                    "internalType": "address[]",
                    "name": "currentValidatorSet",
                    "type": "address[]"
                }
            ],
            "stateMutability": "view",
            "type": "function"
        },
        {
            "inputs": [
                {
                    "internalType": "uint256",
                    "name": "proposalKey",
                    "type": "uint256"
                }
            ],
            "name": "getVotesForWithdrawal",
            "outputs": [
                {
                    "internalType": "uint256",
                    "name": "votes",
                    "type": "uint256"
                }
            ],
            "stateMutability": "view",
            "type": "function"
        },
        {
            "inputs": [],
            "name": "lastProcessedBlock",
            "outputs": [
                {
                    "internalType": "uint256",
                    "name": "",
                    "type": "uint256"
                }
            ],
            "stateMutability": "view",
            "type": "function"
        },
        {
            "inputs": [
                {
                    "internalType": "address[]",
                    "name": "validatorSet",
                    "type": "address[]"
                }
            ],
            "name": "proposeChangeValidators",
            "outputs": [],
            "stateMutability": "payable",
            "type": "function"
        },
        {
            "inputs": [
                {
                    "internalType": "uint256",
                    "name": "fromBlock",
                    "type": "uint256"
                },
                {
                    "internalType": "uint256",
                    "name": "tillBlock",
                    "type": "uint256"
                },
                {
                    "components": [
                        {
                            "internalType": "address payable",
                            "name": "to",
                            "type": "address"
                        },
                        {
                            "internalType": "uint256",
                            "name": "value",
                            "type": "uint256"
                        },
                        {
                            "internalType": "uint256",
                            "name": "trxHash",
                            "type": "uint256"
                        }
                    ],
                    "internalType": "struct Elock.Transfer[]",
                    "name": "transfers",
                    "type": "tuple[]"
                }
            ],
            "name": "proposeWithdrawal",
            "outputs": [],
            "stateMutability": "payable",
            "type": "function"
        },
        {
            "inputs": [],
            "name": "totalSupply",
            "outputs": [
                {
                    "internalType": "uint256",
                    "name": "",
                    "type": "uint256"
                }
            ],
            "stateMutability": "view",
            "type": "function"
        },
        {
            "inputs": [],
            "name": "trxDepositCount",
            "outputs": [
                {
                    "internalType": "uint128",
                    "name": "",
                    "type": "uint128"
                }
            ],
            "stateMutability": "view",
            "type": "function"
        },
        {
            "inputs": [],
            "name": "trxWithdrawCount",
            "outputs": [
                {
                    "internalType": "uint128",
                    "name": "",
                    "type": "uint128"
                }
            ],
            "stateMutability": "view",
            "type": "function"
        },
        {
            "inputs": [],
            "name": "unfreeze",
            "outputs": [],
            "stateMutability": "payable",
            "type": "function"
        },
        {
            "inputs": [],
            "name": "voteForChangeValidators",
            "outputs": [],
            "stateMutability": "payable",
            "type": "function"
        },
        {
            "inputs": [
                {
                    "internalType": "uint256",
                    "name": "proposalKey",
                    "type": "uint256"
                }
            ],
            "name": "voteForWithdrawal",
            "outputs": [],
            "stateMutability": "payable",
            "type": "function"
        },
        {
            "stateMutability": "payable",
            "type": "receive"
        }
    ],
    "bytecode": {
        "object": "0x60806040523480156200001157600080fd5b506040516200182438038062001824833981016040819052620000349162000179565b60008151116200004357600080fd5b434060025560038290556004829055805162000067906005906020840190620000ca565b508051620000759062000081565b600955506200029e9050565b6000816001036200009457506001919050565b60038211620000a557506002919050565b620000b260028362000259565b620000bf9060016200027c565b92915050565b919050565b82805482825590600052602060002090810192821562000122579160200282015b828111156200012257825182546001600160a01b0319166001600160a01b03909116178255602090920191600190910190620000eb565b506200013092915062000134565b5090565b5b8082111562000130576000815560010162000135565b634e487b7160e01b600052604160045260246000fd5b80516001600160a01b0381168114620000c557600080fd5b600080604083850312156200018d57600080fd5b8251602080850151919350906001600160401b0380821115620001af57600080fd5b818601915086601f830112620001c457600080fd5b815181811115620001d957620001d96200014b565b8060051b604051601f19603f830116810181811085821117156200020157620002016200014b565b6040529182528482019250838101850191898311156200022057600080fd5b938501935b828510156200024957620002398562000161565b8452938501939285019262000225565b8096505050505050509250929050565b6000826200027757634e487b7160e01b600052601260045260246000fd5b500490565b80820180821115620000bf57634e487b7160e01b600052601160045260246000fd5b61157680620002ae6000396000f3fe6080604052600436106101025760003560e01c8063939947b811610095578063bb1b2ba211610064578063bb1b2ba2146102a0578063c44339ce146102b3578063c7f758a8146102c8578063c9ce3367146102f7578063d00f128b146102ff57600080fd5b8063939947b8146101f9578063afc2061514610220578063b6b55f251461026b578063b7ab4db51461027e57600080fd5b8063346750f3116100d1578063346750f31461019a5780634fb01f21146101bc57806362a5af3b146101e95780636a28f000146101f157600080fd5b806318160ddd1461010e57806324862ea91461013757806324c37d6e1461014c57806333de61d21461018457600080fd5b3661010957005b600080fd5b34801561011a57600080fd5b5061012460005481565b6040519081526020015b60405180910390f35b61014a610145366004611168565b610312565b005b34801561015857600080fd5b5060015461016c906001600160801b031681565b6040516001600160801b03909116815260200161012e565b34801561019057600080fd5b5061012460045481565b3480156101a657600080fd5b506101af61048f565b60405161012e91906111eb565b3480156101c857600080fd5b506101246101d736600461122f565b6000908152600d602052604090205490565b61014a6104e7565b61014a6106a1565b34801561020557600080fd5b5060015461016c90600160801b90046001600160801b031681565b34801561022c57600080fd5b5061025b61023b36600461122f565b6000908152600c6020908152604080832033845290915290205460ff1690565b604051901515815260200161012e565b61014a61027936600461122f565b610809565b34801561028a57600080fd5b50610293610871565b60405161012e9190611248565b61014a6102ae36600461122f565b6108d2565b3480156102bf57600080fd5b50610293610a4d565b3480156102d457600080fd5b506102e86102e336600461122f565b610aad565b60405161012e93929190611289565b61014a610b71565b61014a61030d366004611331565b610c2e565b61031b33610c81565b610337576040516282b42960e81b815260040160405180910390fd5b6004541561034d57600454841461034d57600080fd5b604080516020808201879052818301869052825180830384018152606090920183528151828201206000818152600790925292902054909190156103d85760405162461bcd60e51b815260206004820152601760248201527f50726f706f73616c20616c72656164792065786973747300000000000000000060448201526064015b60405180910390fd5b600081815260076020526040812087815560018101879055905b848110156104535781600201868683818110610410576104106113f6565b83546001810185556000948552602090942060609091029290920192600302909101905061043e828261140c565b5050808061044b90611460565b9150506103f2565b5050600880546001810182556000919091527ff3f7a9fe364faab93b216da50a3214154f22a0a2b415b23a84c8169e8b636ee301555050505050565b606060088054806020026020016040519081016040528092919081815260200182805480156104dd57602002820191906000526020600020905b8154815260200190600101908083116104c9575b5050505050905090565b6104f033610c81565b61050c576040516282b42960e81b815260040160405180910390fd5b600e5460ff161561055b5760405162461bcd60e51b815260206004820152601960248201527811195c1bdcda5d08185b1c9958591e481d5b999c99595e9959603a1b60448201526064016103cf565b600b541561057b5760405162461bcd60e51b81526004016103cf90611479565b6001336000908152600f602052604090205460ff1660028111156105a1576105a16114bb565b036105ab57600080fd5b6009546010546105bc9060016114d1565b1061063c57600e805460ff1916600117905560005b60105481101561062d576000601082815481106105f0576105f06113f6565b6000918252602080832091909101546001600160a01b03168252600f905260409020805460ff19169055508061062581611460565b9150506105d1565b5061063a60106000611042565b565b336000908152600f6020526040902080546001919060ff191682805b0217905550601080546001810182556000919091527f1b6847dc741a1b0cd08d278845f9d819d87b734759afb55fe2de5cb82a9ae6720180546001600160a01b03191633179055565b6106aa33610c81565b6106c6576040516282b42960e81b815260040160405180910390fd5b600e5460ff1615156001146107195760405162461bcd60e51b815260206004820152601960248201527811195c1bdcda5d08185b1c9958591e481d5b999c99595e9959603a1b60448201526064016103cf565b600b54156107395760405162461bcd60e51b81526004016103cf90611479565b6002336000908152600f602052604090205460ff16600281111561075f5761075f6114bb565b0361076957600080fd5b60095460105461077a9060016114d1565b106107e857600e805460ff1916905560005b60105481101561062d576000601082815481106107ab576107ab6113f6565b6000918252602080832091909101546001600160a01b03168252600f905260409020805460ff1916905550806107e081611460565b91505061078c565b336000908152600f6020526040902080546002919060ff1916600183610658565b600e5460ff161561081957600080fd5b6064341161082657600080fd5b6000805434018155600180549091829161084a9083906001600160801b03166114e4565b92506101000a8154816001600160801b0302191690836001600160801b0316021790555050565b606060058054806020026020016040519081016040528092919081815260200182805480156104dd57602002820191906000526020600020905b81546001600160a01b031681526001909101906020018083116108ab575050505050905090565b6108db33610c81565b6108f7576040516282b42960e81b815260040160405180910390fd5b6000818152600c6020908152604080832033845290915290205460ff16156109515760405162461bcd60e51b815260206004820152600d60248201526c105b1c9958591e481d9bdd1959609a1b60448201526064016103cf565b6000818152600c602090815260408083203384528252808320805460ff19166001908117909155848452600d90925282208054919290916109939084906114d1565b90915550506009546000828152600d602052604090205410610a4a5760006109ba82610ce5565b905080610a3f576000828152600c602090815260408083203384528252808320805460ff19169055848352600d90915281208054600192906109fd90849061150b565b909155505060405160038152339083907f85efe019c55ff374d2b15eb9ec400e4abac8fca1623d0ff7fd2a1274c9bf7cb59060200160405180910390a3610a48565b610a4882610ec7565b505b50565b606060068054806020026020016040519081016040528092919081815260200182805480156104dd576020028201919060005260206000209081546001600160a01b031681526001909101906020018083116108ab575050505050905090565b60008181526007602090815260408083208151606081810184528254825260018301548286015260028301805485518188028101880187528181528897939688969490860193919290879084015b82821015610b50576000848152602090819020604080516060810182526003860290920180546001600160a01b0316835260018082015484860152600290910154918301919091529083529092019101610afb565b50505091525050805160208201516040909201519097919650945092505050565b610b7a33610c81565b610b96576040516282b42960e81b815260040160405180910390fd5b336000908152600a602052604090205460ff1615610be65760405162461bcd60e51b815260206004820152600d60248201526c105b1c9958591e481d9bdd1959609a1b60448201526064016103cf565b336000908152600a60205260408120805460ff19166001908117909155600b805491929091610c169084906114d1565b9091555050600954600b541061063a5761063a610fce565b610c3733610c81565b610c53576040516282b42960e81b815260040160405180910390fd5b60065415610c6057600080fd5b6000815111610c6e57600080fd5b8051610a48906006906020840190611060565b6000805b600554811015610cdc5760058181548110610ca257610ca26113f6565b6000918252602090912001546001600160a01b0390811690841603610cca5750600192915050565b80610cd481611460565b915050610c85565b50600092915050565b600081815260076020908152604080832060020180548251818502810185019093528083528493849084015b82821015610d66576000848152602090819020604080516060810182526003860290920180546001600160a01b0316835260018082015484860152600290910154918301919091529083529092019101610d11565b505050509050600080600090505b8251811015610dba57828181518110610d8f57610d8f6113f6565b60200260200101516020015182610da691906114d1565b915080610db281611460565b915050610d74565b5047811180610dca575060005481115b15610dd9575060009392505050565b60005b8251811015610ebc576000838281518110610df957610df96113f6565b6020026020010151905080600001516001600160a01b03166108fc82602001519081150290604051600060405180830381858888f19350505050158015610e44573d6000803e3d6000fd5b50600180548190601090610e69908390600160801b90046001600160801b03166114e4565b92506101000a8154816001600160801b0302191690836001600160801b031602179055508060200151600080828254610ea2919061150b565b90915550829150610eb4905081611460565b915050610ddc565b506001949350505050565b6000818152600760205260408120600101546004555b600854811015610fb057600060088281548110610efc57610efc6113f6565b60009182526020808320909101548083526007909152604082208281556001810183905590925090610f3160028301826110c5565b505060005b600554811015610f9b57600060058281548110610f5557610f556113f6565b6000918252602080832090910154858352600c825260408084206001600160a01b03909216845291529020805460ff191690555080610f9381611460565b915050610f36565b50508080610fa890611460565b915050610edd565b506000818152600d60205260408120819055610a4a90600890611042565b6000600b5560068054610fe3916005916110e6565b50600654610ff090610fff565b60095561063a60066000611042565b60008160010361101157506001919050565b6003821161102157506002919050565b61102c60028361151e565b6110379060016114d1565b92915050565b919050565b5080546000825590600052602060002090810190610a4a9190611126565b8280548282559060005260206000209081019282156110b5579160200282015b828111156110b557825182546001600160a01b0319166001600160a01b03909116178255602090920191600190910190611080565b506110c1929150611126565b5090565b5080546000825560030290600052602060002090810190610a4a919061113b565b8280548282559060005260206000209081019282156110b55760005260206000209182015b828111156110b557825482559160010191906001019061110b565b5b808211156110c15760008155600101611127565b5b808211156110c15780546001600160a01b0319168155600060018201819055600282015560030161113c565b6000806000806060858703121561117e57600080fd5b8435935060208501359250604085013567ffffffffffffffff808211156111a457600080fd5b818701915087601f8301126111b857600080fd5b8135818111156111c757600080fd5b8860206060830285010111156111dc57600080fd5b95989497505060200194505050565b6020808252825182820181905260009190848201906040850190845b8181101561122357835183529284019291840191600101611207565b50909695505050505050565b60006020828403121561124157600080fd5b5035919050565b6020808252825182820181905260009190848201906040850190845b818110156112235783516001600160a01b031683529284019291840191600101611264565b600060608083018684526020868186015260408381870152828751808552608088019150838901945060005b818110156112eb57855180516001600160a01b0316845285810151868501528401518484015294840194918601916001016112b5565b50909a9950505050505050505050565b634e487b7160e01b600052604160045260246000fd5b6001600160a01b0381168114610a4a57600080fd5b803561103d81611311565b6000602080838503121561134457600080fd5b823567ffffffffffffffff8082111561135c57600080fd5b818501915085601f83011261137057600080fd5b813581811115611382576113826112fb565b8060051b604051601f19603f830116810181811085821117156113a7576113a76112fb565b6040529182528482019250838101850191888311156113c557600080fd5b938501935b828510156113ea576113db85611326565b845293850193928501926113ca565b98975050505050505050565b634e487b7160e01b600052603260045260246000fd5b813561141781611311565b81546001600160a01b0319166001600160a01b039190911617815560208201356001820155604090910135600290910155565b634e487b7160e01b600052601160045260246000fd5b6000600182016114725761147261144a565b5060010190565b60208082526022908201527f56616c696461746f7273206368616e67696e6720697320696e2070726f677265604082015261737360f01b606082015260800190565b634e487b7160e01b600052602160045260246000fd5b808201808211156110375761103761144a565b6001600160801b038181168382160190808211156115045761150461144a565b5092915050565b818103818111156110375761103761144a565b60008261153b57634e487b7160e01b600052601260045260246000fd5b50049056fea2646970667358221220eb441b71dc3cb263dc56a29f06c7229c7fd90c70d3a29987dc264455f5131d3564736f6c63430008150033",
        "linkReferences": {}
    },
    "methodIdentifiers": {
        "deposit(uint256)": "b6b55f25",
        "freeze()": "62a5af3b",
        "getMyVoteForWithdrawal(uint256)": "afc20615",
        "getProposal(uint256)": "c7f758a8",
        "getProposalList()": "346750f3",
        "getProposedValidators()": "c44339ce",
        "getValidators()": "b7ab4db5",
        "getVotesForWithdrawal(uint256)": "4fb01f21",
        "lastProcessedBlock()": "33de61d2",
        "proposeChangeValidators(address[])": "d00f128b",
        "proposeWithdrawal(uint256,uint256,(address,uint256,uint256)[])": "24862ea9",
        "totalSupply()": "18160ddd",
        "trxDepositCount()": "24c37d6e",
        "trxWithdrawCount()": "939947b8",
        "unfreeze()": "6a28f000",
        "voteForChangeValidators()": "c9ce3367",
        "voteForWithdrawal(uint256)": "bb1b2ba2"
    },
    "id": 20
}