{
    "abi": [
        {
            "inputs": [
                {
                    "internalType": "uint256",
                    "name": "_initialL2Block",
                    "type": "uint256"
                },
                {
                    "internalType": "address payable",
                    "name": "_commissionWallet",
                    "type": "address"
                },
                {
                    "internalType": "address[]",
                    "name": "_goshValidators",
                    "type": "address[]"
                }
            ],
            "stateMutability": "nonpayable",
            "type": "constructor"
        },
        {
            "inputs": [],
            "name": "Unauthorized",
            "type": "error"
        },
        {
            "anonymous": false,
            "inputs": [
                {
                    "indexed": true,
                    "internalType": "address",
                    "name": "token",
                    "type": "address"
                },
                {
                    "indexed": false,
                    "internalType": "address",
                    "name": "from",
                    "type": "address"
                },
                {
                    "indexed": false,
                    "internalType": "uint256",
                    "name": "pubkey",
                    "type": "uint256"
                },
                {
                    "indexed": false,
                    "internalType": "uint256",
                    "name": "value",
                    "type": "uint256"
                }
            ],
            "name": "Deposited",
            "type": "event"
        },
        {
            "anonymous": false,
            "inputs": [
                {
                    "indexed": true,
                    "internalType": "uint256",
                    "name": "proposalKey",
                    "type": "uint256"
                }
            ],
            "name": "WithdrawExecuted",
            "type": "event"
        },
        {
            "anonymous": false,
            "inputs": [
                {
                    "indexed": true,
                    "internalType": "uint256",
                    "name": "proposalKey",
                    "type": "uint256"
                },
                {
                    "indexed": true,
                    "internalType": "address",
                    "name": "voter",
                    "type": "address"
                },
                {
                    "indexed": false,
                    "internalType": "uint8",
                    "name": "reason",
                    "type": "uint8"
                }
            ],
            "name": "WithdrawRejected",
            "type": "event"
        },
        {
            "anonymous": false,
            "inputs": [
                {
                    "indexed": true,
                    "internalType": "address",
                    "name": "token",
                    "type": "address"
                },
                {
                    "indexed": true,
                    "internalType": "address",
                    "name": "to",
                    "type": "address"
                },
                {
                    "indexed": false,
                    "internalType": "uint256",
                    "name": "value",
                    "type": "uint256"
                },
                {
                    "indexed": false,
                    "internalType": "uint256",
                    "name": "commission",
                    "type": "uint256"
                }
            ],
            "name": "Withdrawal",
            "type": "event"
        },
        {
            "inputs": [
                {
                    "internalType": "uint256",
                    "name": "pubkey",
                    "type": "uint256"
                }
            ],
            "name": "deposit",
            "outputs": [],
            "stateMutability": "payable",
            "type": "function"
        },
        {
            "inputs": [
                {
                    "internalType": "address",
                    "name": "token",
                    "type": "address"
                },
                {
                    "internalType": "uint256",
                    "name": "value",
                    "type": "uint256"
                },
                {
                    "internalType": "uint256",
                    "name": "pubkey",
                    "type": "uint256"
                }
            ],
            "name": "depositERC20",
            "outputs": [],
            "stateMutability": "payable",
            "type": "function"
        },
        {
            "inputs": [],
            "name": "freezeDeposits",
            "outputs": [],
            "stateMutability": "payable",
            "type": "function"
        },
        {
            "inputs": [],
            "name": "gasPrice",
            "outputs": [
                {
                    "internalType": "uint256",
                    "name": "",
                    "type": "uint256"
                }
            ],
            "stateMutability": "view",
            "type": "function"
        },
        {
            "inputs": [
                {
                    "internalType": "address",
                    "name": "token",
                    "type": "address"
                },
                {
                    "internalType": "address",
                    "name": "recipient",
                    "type": "address"
                }
            ],
            "name": "getERC20Approvement",
            "outputs": [
                {
                    "internalType": "uint256",
                    "name": "value",
                    "type": "uint256"
                },
                {
                    "internalType": "uint256",
                    "name": "commission",
                    "type": "uint256"
                }
            ],
            "stateMutability": "view",
            "type": "function"
        },
        {
            "inputs": [
                {
                    "internalType": "uint256",
                    "name": "proposalKey",
                    "type": "uint256"
                },
                {
                    "internalType": "address",
                    "name": "myAddress",
                    "type": "address"
                }
            ],
            "name": "getMyVoteForWithdrawal",
            "outputs": [
                {
                    "internalType": "bool",
                    "name": "isVoted",
                    "type": "bool"
                }
            ],
            "stateMutability": "view",
            "type": "function"
        },
        {
            "inputs": [
                {
                    "internalType": "uint256",
                    "name": "proposalKey",
                    "type": "uint256"
                }
            ],
            "name": "getProposal",
            "outputs": [
                {
                    "internalType": "uint256",
                    "name": "fromBlock",
                    "type": "uint256"
                },
                {
                    "internalType": "uint256",
                    "name": "tillB",
                    "type": "uint256"
                },
                {
                    "components": [
                        {
                            "internalType": "address",
                            "name": "token",
                            "type": "address"
                        },
                        {
                            "internalType": "address payable",
                            "name": "to",
                            "type": "address"
                        },
                        {
                            "internalType": "uint256",
                            "name": "value",
                            "type": "uint256"
                        },
                        {
                            "internalType": "uint256",
                            "name": "trxHash",
                            "type": "uint256"
                        }
                    ],
                    "internalType": "struct Elock.Transfer[]",
                    "name": "transfers",
                    "type": "tuple[]"
                }
            ],
            "stateMutability": "view",
            "type": "function"
        },
        {
            "inputs": [],
            "name": "getProposalList",
            "outputs": [
                {
                    "internalType": "uint256[]",
                    "name": "proposalKeys",
                    "type": "uint256[]"
                }
            ],
            "stateMutability": "view",
            "type": "function"
        },
        {
            "inputs": [],
            "name": "getProposedValidators",
            "outputs": [
                {
                    "internalType": "address[]",
                    "name": "proposedValidatorSet",
                    "type": "address[]"
                }
            ],
            "stateMutability": "view",
            "type": "function"
        },
        {
            "inputs": [],
            "name": "getTokenRoots",
            "outputs": [
                {
                    "internalType": "address[]",
                    "name": "roots",
                    "type": "address[]"
                }
            ],
            "stateMutability": "view",
            "type": "function"
        },
        {
            "inputs": [
                {
                    "internalType": "address",
                    "name": "token_root",
                    "type": "address"
                }
            ],
            "name": "getTotalSupply",
            "outputs": [
                {
                    "internalType": "uint256",
                    "name": "amount",
                    "type": "uint256"
                }
            ],
            "stateMutability": "view",
            "type": "function"
        },
        {
            "inputs": [],
            "name": "getValidators",
            "outputs": [
                {
                    "internalType": "address[]",
                    "name": "currentValidatorSet",
                    "type": "address[]"
                }
            ],
            "stateMutability": "view",
            "type": "function"
        },
        {
            "inputs": [
                {
                    "internalType": "uint256",
                    "name": "proposalKey",
                    "type": "uint256"
                }
            ],
            "name": "getVotesForWithdrawal",
            "outputs": [
                {
                    "internalType": "uint256",
                    "name": "votes",
                    "type": "uint256"
                }
            ],
            "stateMutability": "view",
            "type": "function"
        },
        {
            "inputs": [],
            "name": "lastProcessedL2Block",
            "outputs": [
                {
                    "internalType": "uint256",
                    "name": "",
                    "type": "uint256"
                }
            ],
            "stateMutability": "view",
            "type": "function"
        },
        {
            "inputs": [
                {
                    "internalType": "address[]",
                    "name": "validatorSet",
                    "type": "address[]"
                }
            ],
            "name": "proposeChangeValidators",
            "outputs": [],
            "stateMutability": "payable",
            "type": "function"
        },
        {
            "inputs": [
                {
                    "internalType": "uint256",
                    "name": "fromBlock",
                    "type": "uint256"
                },
                {
                    "internalType": "uint256",
                    "name": "tillBlock",
                    "type": "uint256"
                },
                {
                    "components": [
                        {
                            "internalType": "address",
                            "name": "token",
                            "type": "address"
                        },
                        {
                            "internalType": "address payable",
                            "name": "to",
                            "type": "address"
                        },
                        {
                            "internalType": "uint256",
                            "name": "value",
                            "type": "uint256"
                        },
                        {
                            "internalType": "uint256",
                            "name": "trxHash",
                            "type": "uint256"
                        }
                    ],
                    "internalType": "struct Elock.Transfer[]",
                    "name": "transfers",
                    "type": "tuple[]"
                }
            ],
            "name": "proposeWithdrawal",
            "outputs": [],
            "stateMutability": "payable",
            "type": "function"
        },
        {
            "inputs": [],
            "name": "totalSupply",
            "outputs": [
                {
                    "internalType": "uint256",
                    "name": "",
                    "type": "uint256"
                }
            ],
            "stateMutability": "view",
            "type": "function"
        },
        {
            "inputs": [],
            "name": "trxDepositCount",
            "outputs": [
                {
                    "internalType": "uint128",
                    "name": "",
                    "type": "uint128"
                }
            ],
            "stateMutability": "view",
            "type": "function"
        },
        {
            "inputs": [],
            "name": "trxWithdrawCount",
            "outputs": [
                {
                    "internalType": "uint128",
                    "name": "",
                    "type": "uint128"
                }
            ],
            "stateMutability": "view",
            "type": "function"
        },
        {
            "inputs": [],
            "name": "unfreezeDeposits",
            "outputs": [],
            "stateMutability": "payable",
            "type": "function"
        },
        {
            "inputs": [
                {
                    "internalType": "bool",
                    "name": "vote",
                    "type": "bool"
                }
            ],
            "name": "voteForChangeValidators",
            "outputs": [],
            "stateMutability": "payable",
            "type": "function"
        },
        {
            "inputs": [
                {
                    "internalType": "uint256",
                    "name": "proposalKey",
                    "type": "uint256"
                }
            ],
            "name": "voteForWithdrawal",
            "outputs": [],
            "stateMutability": "payable",
            "type": "function"
        },
        {
            "inputs": [],
            "name": "votedForFreezeList",
            "outputs": [
                {
                    "internalType": "address[]",
                    "name": "",
                    "type": "address[]"
                }
            ],
            "stateMutability": "view",
            "type": "function"
        },
        {
            "inputs": [
                {
                    "internalType": "address",
                    "name": "token",
                    "type": "address"
                }
            ],
            "name": "withdrawERC20",
            "outputs": [],
            "stateMutability": "payable",
            "type": "function"
        },
        {
            "stateMutability": "payable",
            "type": "receive"
        }
    ],
    "bytecode": {
        "object": "0x60c06040523480156200001157600080fd5b5060405162002720380380620027208339810160408190526200003491620001f1565b600083116200004257600080fd5b60008151116200005157600080fd5b4340600255608083905260038390556001600160a01b03821660a05260005b8151811015620000dc57600160046000848481518110620000955762000095620002e4565b6020908102919091018101516001600160a01b03168252810191909152604001600020805460ff191691151591909117905580620000d38162000310565b91505062000070565b508051620000f29060149060208401906200012f565b50805162000100906200010d565b6009555062000365915050565b60006200011c6002836200032c565b620001299060016200034f565b92915050565b82805482825590600052602060002090810192821562000187579160200282015b828111156200018757825182546001600160a01b0319166001600160a01b0390911617825560209092019160019091019062000150565b506200019592915062000199565b5090565b5b808211156200019557600081556001016200019a565b6001600160a01b0381168114620001c657600080fd5b50565b634e487b7160e01b600052604160045260246000fd5b8051620001ec81620001b0565b919050565b6000806000606084860312156200020757600080fd5b835192506020808501516200021c81620001b0565b60408601519093506001600160401b03808211156200023a57600080fd5b818701915087601f8301126200024f57600080fd5b815181811115620002645762000264620001c9565b8060051b604051601f19603f830116810181811085821117156200028c576200028c620001c9565b60405291825284820192508381018501918a831115620002ab57600080fd5b938501935b82851015620002d457620002c485620001df565b84529385019392850192620002b0565b8096505050505050509250925092565b634e487b7160e01b600052603260045260246000fd5b634e487b7160e01b600052601160045260246000fd5b600060018201620003255762000325620002fa565b5060010190565b6000826200034a57634e487b7160e01b600052601260045260246000fd5b500490565b80820180821115620001295762000129620002fa565b60805160a0516123986200038860003960006119c20152600050506123986000f3fe60806040526004361061014f5760003560e01c8063a2e22f0e116100b6578063c7f758a81161006f578063c7f758a8146103c6578063d00f128b146103f5578063ef8ae1f914610408578063f2a2125014610410578063f4f3b20014610425578063fe173b971461043857600080fd5b8063a2e22f0e1461034c578063b6b55f251461036e578063b7ab4db514610381578063bb1b2ba214610396578063bcb999ca146103a9578063c44339ce146103b157600080fd5b80634fb01f21116101085780634fb01f2114610269578063641840e11461029657806365581f50146102a957806368da10ae146102bf578063775087f2146102f5578063939947b81461032557600080fd5b806318160ddd1461015b57806321425ee01461018457806324c37d6e146101995780632d504537146101d1578063346750f314610234578063438f3b241461025657600080fd5b3661015657005b600080fd5b34801561016757600080fd5b5061017160005481565b6040519081526020015b60405180910390f35b610197610192366004611e0c565b61044b565b005b3480156101a557600080fd5b506001546101b9906001600160801b031681565b6040516001600160801b03909116815260200161017b565b3480156101dd57600080fd5b5061021f6101ec366004611e41565b6001600160a01b039182166000908152601560209081526040808320939094168252919091522080546001909101549091565b6040805192835260208301919091520161017b565b34801561024057600080fd5b5061024961071a565b60405161017b9190611e7a565b610197610264366004611ebe565b610772565b34801561027557600080fd5b50610171610284366004611f41565b6000908152600e602052604090205490565b6101976102a4366004611f68565b610909565b3480156102b557600080fd5b5061017160035481565b3480156102cb57600080fd5b506101716102da366004611f8c565b6001600160a01b031660009081526016602052604090205490565b34801561030157600080fd5b50610315610310366004611fa9565b610a13565b604051901515815260200161017b565b34801561033157600080fd5b506001546101b990600160801b90046001600160801b031681565b34801561035857600080fd5b50610361610a40565b60405161017b9190611fce565b61019761037c366004611f41565b610aa1565b34801561038d57600080fd5b50610361610be0565b6101976103a4366004611f41565b610c40565b610197610de3565b3480156103bd57600080fd5b50610361610fab565b3480156103d257600080fd5b506103e66103e1366004611f41565b61100b565b60405161017b9392919061200f565b6101976104033660046120a4565b6110dc565b61019761115f565b34801561041c57600080fd5b506103616112d5565b610197610433366004611f8c565b611335565b34801561044457600080fd5b503a610171565b60125460ff161561045b57600080fd5b6001600160a01b03831661046e57600080fd5b604051636eb1769f60e11b81523360048201523060248201526000906001600160a01b0385169063dd62ed3e90604401602060405180830381865afa1580156104bb573d6000803e3d6000fd5b505050506040513d601f19601f820116820180604052508101906104df9190612169565b9050828110156105255760405162461bcd60e51b815260206004820152600c60248201526b139bdd08185c1c1c9bdd995960a21b60448201526064015b60405180910390fd5b6040516323b872dd60e01b8152336004820152306024820152604481018490526000906001600160a01b038616906323b872dd906064016020604051808303816000875af115801561057b573d6000803e3d6000fd5b505050506040513d601f19601f8201168201806040525081019061059f9190612182565b9050806105e05760405162461bcd60e51b815260206004820152600f60248201526e151c985b9cd9995c8819985a5b1959608a1b604482015260640161051c565b6001805481906000906105fd9083906001600160801b03166121b5565b92506101000a8154816001600160801b0302191690836001600160801b0316021790555060166000866001600160a01b03166001600160a01b031681526020019081526020016000205460000361069a57601780546001810182556000919091527fc624b66cc0138b8fabc209247f72d758e1cf3343756d543badbf24212bed8c150180546001600160a01b0319166001600160a01b0387161790555b6001600160a01b038516600090815260166020526040812080548692906106c29084906121dc565b909155505060408051338152602081018590529081018590526001600160a01b038616907ff5681f9d0db1b911ac18ee83d515a1cf1051853a9eae418316a2fdf7dea427c59060600160405180910390a25050505050565b6060600880548060200260200160405190810160405280929190818152602001828054801561076857602002820191906000526020600020905b815481526020019060010190808311610754575b5050505050905090565b3360009081526004602052604090205460ff166107a1576040516282b42960e81b815260040160405180910390fd5b60035484146107af57600080fd5b604080516020808201879052818301869052825180830384018152606090920183528151828201206000818152600790925292902054909190156108355760405162461bcd60e51b815260206004820152601760248201527f50726f706f73616c20616c726561647920657869737473000000000000000000604482015260640161051c565b600081815260076020526040812087815560018101879055905b848110156108b0578160020186868381811061086d5761086d6121ef565b83546001810185556000948552602090942060809091029290920192600402909101905061089b8282612225565b505080806108a89061226f565b91505061084f565b50600880546001810182556000919091527ff3f7a9fe364faab93b216da50a3214154f22a0a2b415b23a84c8169e8b636ee30182905562061a80600f60008282546108fb91906121dc565b909155505050505050505050565b3360009081526004602052604090205460ff16610938576040516282b42960e81b815260040160405180910390fd5b336000908152600a602052604090205460ff16156109885760405162461bcd60e51b815260206004820152600d60248201526c105b1c9958591e481d9bdd1959609a1b604482015260640161051c565b336000908152600a60205260409020805460ff1916600117905580156109d6576001600b60008282546109bb91906121dc565b9091555050600954600b54106109d3576109d3611511565b50565b6001600c60008282546109e991906121dc565b90915550506009546014546109fe9190612288565b600c5411156109d3576109d360056000611cb4565b6000828152600d602090815260408083206001600160a01b038516845290915290205460ff165b92915050565b6060601180548060200260200160405190810160405280929190818152602001828054801561076857602002820191906000526020600020905b81546001600160a01b03168152600190910190602001808311610a7a575050505050905090565b60125460ff1615610ab157600080fd5b662386f26fc100003411610ac457600080fd5b60008054340181558080526016602052600080516020612343833981519152549003610b2b57601780546001810182556000919091527fc624b66cc0138b8fabc209247f72d758e1cf3343756d543badbf24212bed8c150180546001600160a01b03191690555b600080805260166020526000805160206123438339815191528054349290610b549084906121dc565b9091555050600180548190600090610b769083906001600160801b03166121b5565b82546101009290920a6001600160801b03818102199093169190921691909102179055506040805133815260208101839052348183015290516000917ff5681f9d0db1b911ac18ee83d515a1cf1051853a9eae418316a2fdf7dea427c5919081900360600190a250565b60606014805480602002602001604051908101604052809291908181526020018280548015610768576020028201919060005260206000209081546001600160a01b03168152600190910190602001808311610a7a575050505050905090565b3360009081526004602052604090205460ff16610c6f576040516282b42960e81b815260040160405180910390fd5b6000818152600760205260408120549003610cc35760405162461bcd60e51b8152602060048201526014602482015273556e6b6e6f776e2070726f706f73616c206b657960601b604482015260640161051c565b6000818152600d6020908152604080832033845290915281205460ff1615159003610d30576000818152600d602090815260408083203384528252808320805460ff19166001908117909155848452600e9092528220805491929091610d2a9084906121dc565b90915550505b6009546000828152600e6020526040902054106109d3576000610d528261160d565b90508015610da657600082815260076020526040902060010154600355610d77611a3c565b60405182907f906f71466379a94b86a805004f5cc535b083a42e1a1582e29048cc78633d795590600090a25050565b60405160038152339083907fc93e352b0db2382529aa994f33e15a46c2761d27903172db06fcabd426ebc4889060200160405180910390a35b5050565b3360009081526004602052604090205460ff16610e12576040516282b42960e81b815260040160405180910390fd5b60125460ff1615610e655760405162461bcd60e51b815260206004820152601760248201527f4465706f73697420616c726561647920667265657a6564000000000000000000604482015260640161051c565b600b5415610e855760405162461bcd60e51b815260040161051c9061229b565b60013360009081526010602052604090205460ff166002811115610eab57610eab6122dd565b03610eb557600080fd5b600954601154610ec69060016121dc565b10610f46576012805460ff1916600117905560005b601154811015610f3757600060118281548110610efa57610efa6121ef565b6000918252602080832091909101546001600160a01b031682526010905260409020805460ff191690555080610f2f8161226f565b915050610edb565b50610f4460116000611cb4565b565b33600090815260106020526040902080546001919060ff191682805b0217905550601180546001810182556000919091527f31ecc21a745e3968a04e9570e4425bc18fa8019c68028196b546d1669c200c680180546001600160a01b03191633179055565b60606005805480602002602001604051908101604052809291908181526020018280548015610768576020028201919060005260206000209081546001600160a01b03168152600190910190602001808311610a7a575050505050905090565b60008181526007602090815260408083208151606081810184528254825260018301548286015260028301805485518188028101880187528181528897939688969490860193919290879084015b828210156110bb576000848152602090819020604080516080810182526004860290920180546001600160a01b039081168452600180830154909116848601526002820154928401929092526003015460608301529083529092019101611059565b50505091525050805160208201516040909201519097919650945092505050565b3360009081526004602052604090205460ff1661110b576040516282b42960e81b815260040160405180910390fd5b6005541561111857600080fd5b600081511161112657600080fd5b8051611139906005906020840190611cd2565b5060016006600082825461114d91906121dc565b90915550506000600b819055600c5550565b3360009081526004602052604090205460ff1661118e576040516282b42960e81b815260040160405180910390fd5b60125460ff1615156001146111e55760405162461bcd60e51b815260206004820152601960248201527f4465706f73697420616c726561647920756e667265657a656400000000000000604482015260640161051c565b600b54156112055760405162461bcd60e51b815260040161051c9061229b565b60023360009081526010602052604090205460ff16600281111561122b5761122b6122dd565b0361123557600080fd5b6009546011546112469060016121dc565b106112b4576012805460ff1916905560005b601154811015610f3757600060118281548110611277576112776121ef565b6000918252602080832091909101546001600160a01b031682526010905260409020805460ff1916905550806112ac8161226f565b915050611258565b33600090815260106020526040902080546002919060ff1916600183610f62565b60606017805480602002602001604051908101604052809291908181526020018280548015610768576020028201919060005260206000209081546001600160a01b03168152600190910190602001808311610a7a575050505050905090565b6001600160a01b03811660009081526015602090815260408083203384529091529020805461136357600080fd5b8060010154341461137357600080fd5b80546001808301546001600160a01b0385166000818152601560209081526040808320338085529252808320838155909501829055935163a9059cbb60e01b8152600481019490945260248401859052919263a9059cbb906044016020604051808303816000875af11580156113ed573d6000803e3d6000fd5b505050506040513d601f19601f820116820180604052508101906114119190612182565b9050801561150a5760018054819060109061143d908390600160801b90046001600160801b03166121b5565b92506101000a8154816001600160801b0302191690836001600160801b031602179055508260166000876001600160a01b03166001600160a01b0316815260200190815260200160002060008282546114969190612288565b90915550506001600160a01b03851660009081526016602052604081205490036114c3576114c385611b33565b604080518481526020810184905233916001600160a01b038816917fc2b4a290c20fb28939d29f102514fbffd2b73c059ffba8b78250c94161d5fcc6910160405180910390a35b5050505050565b60005b601454811015611573576004600060148381548110611535576115356121ef565b60009182526020808320909101546001600160a01b031683528201929092526040019020805460ff191690558061156b8161226f565b915050611514565b5060005b6005548110156115e0576001600460006005848154811061159a5761159a6121ef565b6000918252602080832091909101546001600160a01b031683528201929092526040019020805460ff1916911515919091179055806115d88161226f565b915050611577565b50600580546115f191601491611d37565b506005546115fe90611c3a565b600955610f4460056000611cb4565b600081815260076020908152604080832060020180548251818502810185019093528083528493849084015b8282101561169b576000848152602090819020604080516080810182526004860290920180546001600160a01b039081168452600180830154909116848601526002820154928401929092526003015460608301529083529092019101611639565b50505050905060008082513a600f546116b491906122f3565b6116be919061230a565b90506000816116cf3a6152086122f3565b6116d991906121dc565b90506000806000805b87518110156117605760006001600160a01b0316888281518110611708576117086121ef565b6020026020010151600001516001600160a01b03160361174e57878181518110611734576117346121ef565b6020026020010151604001518761174b91906121dc565b96505b806117588161226f565b9150506116e2565b5047861180611770575060005486115b156117845750600098975050505050505050565b60005b87518110156118d85760008882815181106117a4576117a46121ef565b602090810291909101015180519091506001600160a01b03166118ad5785816040015111156118895760008682604001516117df9190612288565b60208301516040519192506001600160a01b03169082156108fc029083906000818181858888f1935050505015801561181c573d6000803e3d6000fd5b5081602001516001600160a01b031682600001516001600160a01b03167fc2b4a290c20fb28939d29f102514fbffd2b73c059ffba8b78250c94161d5fcc6838a604051611873929190918252602082015260400190565b60405180910390a361188588876121dc565b9550505b6118946001856121b5565b93508060400151836118a691906121dc565b92506118c5565b6118c58160000151826020015183604001518a611c52565b50806118d08161226f565b915050611787565b5081600160108282829054906101000a90046001600160801b03166118fd91906121b5565b92506101000a8154816001600160801b0302191690836001600160801b03160217905550806000808282546119329190612288565b9091555050600080805260166020526000805160206123438339815191528054839290611960908490612288565b90915550506000808052601660205260008051602061234383398151915254900361198f5761198f6000611b33565b82601360008282546119a191906121dc565b90915550506013546703782dace9d900001015611a2d576001600160a01b037f0000000000000000000000000000000000000000000000000000000000000000166108fc6119f13a6152086122f3565b6013546119fe9190612288565b6040518115909202916000818181858888f19350505050158015611a26573d6000803e3d6000fd5b5060006013555b50600198975050505050505050565b60005b600854811015611b1f57600060088281548110611a5e57611a5e6121ef565b60009182526020808320909101548083526007909152604082208281556001810183905590925090611a936002830182611d77565b505060005b601454811015611afd57600060148281548110611ab757611ab76121ef565b6000918252602080832090910154858352600d825260408084206001600160a01b03909216845291529020805460ff191690555080611af58161226f565b915050611a98565b506000908152600e602052604081205580611b178161226f565b915050611a3f565b50611b2c60086000611cb4565b6000600f55565b60005b601754811015610ddf57816001600160a01b031660178281548110611b5d57611b5d6121ef565b6000918252602090912001546001600160a01b031603611c285760178054611b8790600190612288565b81548110611b9757611b976121ef565b600091825260209091200154601780546001600160a01b039092169183908110611bc357611bc36121ef565b9060005260206000200160006101000a8154816001600160a01b0302191690836001600160a01b031602179055506017805480611c0257611c0261232c565b600082815260209020810160001990810180546001600160a01b03191690550190555050565b80611c328161226f565b915050611b36565b6000611c4760028361230a565b610a3a9060016121dc565b6001600160a01b0380851660009081526015602090815260408083209387168352929052908120805490918491839190611c8d9084906121dc565b9250508190555081816001016000828254611ca891906121dc565b90915550505050505050565b50805460008255906000526020600020908101906109d39190611d98565b828054828255906000526020600020908101928215611d27579160200282015b82811115611d2757825182546001600160a01b0319166001600160a01b03909116178255602090920191600190910190611cf2565b50611d33929150611d98565b5090565b828054828255906000526020600020908101928215611d275760005260206000209182015b82811115611d27578254825591600101919060010190611d5c565b50805460008255600402906000526020600020908101906109d39190611dad565b5b80821115611d335760008155600101611d99565b5b80821115611d335780546001600160a01b0319908116825560018201805490911690556000600282018190556003820155600401611dae565b6001600160a01b03811681146109d357600080fd5b8035611e0781611de7565b919050565b600080600060608486031215611e2157600080fd5b8335611e2c81611de7565b95602085013595506040909401359392505050565b60008060408385031215611e5457600080fd5b8235611e5f81611de7565b91506020830135611e6f81611de7565b809150509250929050565b6020808252825182820181905260009190848201906040850190845b81811015611eb257835183529284019291840191600101611e96565b50909695505050505050565b60008060008060608587031215611ed457600080fd5b8435935060208501359250604085013567ffffffffffffffff80821115611efa57600080fd5b818701915087601f830112611f0e57600080fd5b813581811115611f1d57600080fd5b8860208260071b8501011115611f3257600080fd5b95989497505060200194505050565b600060208284031215611f5357600080fd5b5035919050565b80151581146109d357600080fd5b600060208284031215611f7a57600080fd5b8135611f8581611f5a565b9392505050565b600060208284031215611f9e57600080fd5b8135611f8581611de7565b60008060408385031215611fbc57600080fd5b823591506020830135611e6f81611de7565b6020808252825182820181905260009190848201906040850190845b81811015611eb25783516001600160a01b031683529284019291840191600101611fea565b60006060808301868452602086818601526040838187015282875180855260809450848801915083890160005b8281101561207d57815180516001600160a01b039081168652878201511687860152858101518686015288015188850152928601929085019060010161203c565b50919b9a5050505050505050505050565b634e487b7160e01b600052604160045260246000fd5b600060208083850312156120b757600080fd5b823567ffffffffffffffff808211156120cf57600080fd5b818501915085601f8301126120e357600080fd5b8135818111156120f5576120f561208e565b8060051b604051601f19603f8301168101818110858211171561211a5761211a61208e565b60405291825284820192508381018501918883111561213857600080fd5b938501935b8285101561215d5761214e85611dfc565b8452938501939285019261213d565b98975050505050505050565b60006020828403121561217b57600080fd5b5051919050565b60006020828403121561219457600080fd5b8151611f8581611f5a565b634e487b7160e01b600052601160045260246000fd5b6001600160801b038181168382160190808211156121d5576121d561219f565b5092915050565b80820180821115610a3a57610a3a61219f565b634e487b7160e01b600052603260045260246000fd5b80546001600160a01b0319166001600160a01b0392909216919091179055565b813561223081611de7565b61223a8183612205565b50602082013561224981611de7565b6122568160018401612205565b5060408201356002820155606082013560038201555050565b6000600182016122815761228161219f565b5060010190565b81810381811115610a3a57610a3a61219f565b60208082526022908201527f56616c696461746f7273206368616e67696e6720697320696e2070726f677265604082015261737360f01b606082015260800190565b634e487b7160e01b600052602160045260246000fd5b8082028115828204841417610a3a57610a3a61219f565b60008261232757634e487b7160e01b600052601260045260246000fd5b500490565b634e487b7160e01b600052603160045260246000fdfe0263c2b778d062355049effc2dece97bc6547ff8a88a3258daa512061c2153dda264697066735822122086e44a8723c8f2411b29f34b0c2f3afd28b43bda81a398dd36ca473627a5b10664736f6c63430008150033",
        "linkReferences": {}
    },
    "methodIdentifiers": {
        "deposit(uint256)": "b6b55f25",
        "depositERC20(address,uint256,uint256)": "21425ee0",
        "freezeDeposits()": "bcb999ca",
        "gasPrice()": "fe173b97",
        "getERC20Approvement(address,address)": "2d504537",
        "getMyVoteForWithdrawal(uint256,address)": "775087f2",
        "getProposal(uint256)": "c7f758a8",
        "getProposalList()": "346750f3",
        "getProposedValidators()": "c44339ce",
        "getTokenRoots()": "f2a21250",
        "getTotalSupply(address)": "68da10ae",
        "getValidators()": "b7ab4db5",
        "getVotesForWithdrawal(uint256)": "4fb01f21",
        "lastProcessedL2Block()": "65581f50",
        "proposeChangeValidators(address[])": "d00f128b",
        "proposeWithdrawal(uint256,uint256,(address,address,uint256,uint256)[])": "438f3b24",
        "totalSupply()": "18160ddd",
        "trxDepositCount()": "24c37d6e",
        "trxWithdrawCount()": "939947b8",
        "unfreezeDeposits()": "ef8ae1f9",
        "voteForChangeValidators(bool)": "641840e1",
        "voteForWithdrawal(uint256)": "bb1b2ba2",
        "votedForFreezeList()": "a2e22f0e",
        "withdrawERC20(address)": "f4f3b200"
    },
    "id": 18
}